:020000040000FA
:060000000A128A110E280D
:10000800FE00030EF7000408F8000A08F9000A12B7
:100018008A111A280A128A111128F001F101F20135
:10002800F301F40183010A128A11F92883120313D8
:100038008C1D1F28202835288C117108031D2528A0
:1000480026282F281308F5007508F30001309300BF
:10005800F101F10A35281308F5007508F20093013B
:10006800F1018C1E382839283D281A08F500750832
:10007800F4000C1E40284128772823307306031DFE
:10008800462847284B282230F5007508F30023300E
:100098007206031D5028512864282230F50075087F
:1000A800F2006428730899000130F5007508F0071C
:1000B800772872089900582823309900F00177288A
:1000C8007008F500F6017608003A03196C287728BD
:1000D8007508003A03195628013A03195D28033AAE
:1000E80003196028772879088A0078088400770E31
:1000F8008300FE0E7E0E090083120313A1008316EF
:1001080003138712831203132103031D8C288D28E0
:100118009B28831603138711941314178312031350
:10012800941614121410941014119411BF28210855
:10013800031D9F28A028BF2883160313871594132F
:10014800141783120313941614129410141594118F
:100158002003031DB028B128B3281414BF28200891
:10016800031DB728B828BF288316031385168312E2
:1001780003131410BF28080083120313A100831669
:10018800031307138717831603178711831603139F
:1001980018151812831203139817193083160313AE
:1001A8009900831203132103031DDB28DC28E428AC
:1001B800831603138C16831203138C128B170B17D9
:1001C80018101816831603139816831203132003A6
:1001D800031DEF28F028F828831603130C16831242
:1001E80003130C128B170B1708000A128A112A2105
:1001F8000A128A1183120313A001A00A01300A12FD
:100208008A1180200A128A110A128A1135210A12CB
:100218008A1183120313A001A00A00300A128A115E
:10022800C0200A128A1101308312031393008C1E16
:100238001E291F291B2906171A08A2002208F400E4
:10024800740886001B290A128A110E2883160317C0
:10025800880189018316031386018312031386011B
:1002680008008B170B17831603138C1583120313BF
:040278008C110800DD
:04400E00D4E0FFFFFC
:00000001FF
