:020000040000FA
:060000000A128A110E280D
:10000800FE00030EF7000408F8000A08F9000A12B7
:100018008A111A280A128A111128F001F101F20135
:10002800F301F40183010A128A11E32883120313EE
:100038008C1D1F28202836288C117108031D25289F
:1000480026282F281308F5007508F30001309300BF
:10005800F101F10A65281308F5007508F20093010B
:10006800F10165288C1E39283A283F281A08F5001E
:100078007508F40065280C1E422843286528522874
:10008800730899000130F5007508F00765287208B3
:100098009900462842309900F00165287008F5005B
:1000A800F6017608003A03195A2865287508003AB7
:1000B80003194428013A03194B28033A03194E2817
:1000C800652879088A0078088400770E8300FE0E78
:1000D8007E0E090083120313A100831603138712EF
:1000E800831203132103031D7A287B28892883168A
:1000F80003138711941314178312031394161412FD
:100108001410941014119411AD282108031D8D2882
:100118008E28AD288316031387159413141783129A
:100128000313941614129410141594112003031D2C
:100138009E289F28A1281414AD282008031DA5284F
:10014800A628AD28831603138516831203131410EB
:10015800AD28080083120313A10083160317871123
:1001680083160313181518128312031398171930DE
:10017800831603139900831203132103031DC52853
:10018800C628CE28831603138C16831203138C12E9
:100198008B170B171810181683160313981683124B
:1001A80003132003031DD928DA28E2288316031332
:1001B8000C16831203130C128B170B1708000A1264
:1001C8008A1104210A128A1183120313A001A00ABA
:1001D80001300A128A116E200A128A110A128A1133
:1001E8000F210A128A1183120313A00100300A1288
:1001F8008A11AE200A128A1100290A128A110E28C1
:100208008316031788018901831603138601831255
:100218000313860108008B170B17831603138C151D
:08022800831203138C1108007E
:04400E00D4E0FFFFFC
:00000001FF
