:020000040000FA
:060000000A128A110C280F
:10000800FE00030EF0000A08F1000A128A11AC285B
:100018000A128A110F28F40183010A128A1178281A
:10002800F3008316031387127303031D1C281D286E
:100038002928871194131417831203139416141282
:1000480014109410141194114B287308031D2D28B3
:100058002E284B288715941314178312031394160C
:1000680014129410141594117203031D3C283D2892
:100078003F2814144B287208031D432844284B2892
:100088008316031385168312031314104B280800D4
:10009800F300831603178711831603131815181214
:1000A80083120313981719308316031399007303E7
:1000B800031D5F28602866288C16831203138C1290
:1000C8008B170B178312181018168316031398161C
:1000D8007203031D7028712877280C1683120313E6
:1000E8000C128B170B1708000A128A1198200A1293
:1000F8008A11F201F20A01300A128A1114200A1236
:100108008A110A128A11A3200A128A11F2010030F8
:100118000A128A114C200A128A11831203138601CB
:1001280091280A128A110C2883160317880189015D
:1001380083160313860183120313860108008B17A5
:100148000B17831603138C15831203138C110800E5
:0E01580071088A00700E8300FE0E7E0E0900F4
:04400E00D4E0FFFFFC
:00000001FF
