:020000040000FA
:060000000A128A110E280D
:10000800FE00030EF2000408F3000A08F4000A12C6
:100018008A111F280A128A1111280A128A1123210B
:100028000A128A11F900F501F601F701F8018301B6
:100038000A128A11E828831203138C1D2428252804
:100048003A288C117608031D2A282B2834281308EF
:10005800F0007008F70001309300F601F60A3A281C
:100068001308F0007008F9009301F6018C1E3D2872
:100078003E2842281A08F0007008F8000C1E45288F
:10008800462868285528770899000130F00070083C
:10009800F507682879089900492842309900F50140
:1000A80068287508F000F1017108003A03195D2805
:1000B80068287008003A03194728013A03194E289E
:1000C800033A03195128682874088A0073088400C1
:1000D800720E8300FE0E7E0E090083120313A10028
:1000E800831603138712831203132103031D7D282C
:1000F8007E288C28831603138711941314178312F0
:100108000313941614121410941014119411B02897
:100118002108031D90289128B028831603138715FA
:1001280094131417831203139416141294101415AD
:1001380094112003031DA128A228A4281414B02870
:100148002008031DA828A928B0288316031385169C
:10015800831203131410B028080083120313A1009C
:1001680083160317871183160313181518128312A1
:1001780003139817831603138717193099008312EE
:1001880003132103031DC928CA28D2288316031381
:100198008C16831203138C128B170B171810181652
:1001A8008316031398160713831203132003031DE2
:1001B800DE28DF28E728831603130C16831203139F
:1001C8000C128B170B1708000A128A110F210A123A
:1001D8008A1183120313A001A00A01300A128A119E
:1001E80071200A128A110A128A111A210A128A1116
:1001F80083120313A001A00A01300A128A11B12048
:100208000A128A11831203139301780886000929B8
:100218000A128A110E28831603178801890183168A
:100228000313860183120313860108008B170B172B
:10023800831603138C15831203138C1108000134E1
:04400E00D4E0FFFFFC
:00000001FF
